{
  "_format": "hh-sol-artifact-1",
  "contractName": "VotingPlatform",
  "sourceName": "contracts/VotingPlatform.sol",
  "abi": [
    {
      "inputs": [
        {
          "internalType": "string",
          "name": "topicId",
          "type": "string"
        },
        {
          "internalType": "string",
          "name": "option",
          "type": "string"
        }
      ],
      "name": "addOption",
      "outputs": [],
      "stateMutability": "nonpayable",
      "type": "function"
    },
    {
      "inputs": [
        {
          "internalType": "string",
          "name": "topicId",
          "type": "string"
        },
        {
          "internalType": "address",
          "name": "voter",
          "type": "address"
        }
      ],
      "name": "allowVoter",
      "outputs": [],
      "stateMutability": "nonpayable",
      "type": "function"
    },
    {
      "inputs": [
        {
          "internalType": "string",
          "name": "topicId",
          "type": "string"
        },
        {
          "internalType": "uint256",
          "name": "durationInSeconds",
          "type": "uint256"
        }
      ],
      "name": "createTopic",
      "outputs": [],
      "stateMutability": "nonpayable",
      "type": "function"
    },
    {
      "inputs": [
        {
          "internalType": "string",
          "name": "topicId",
          "type": "string"
        }
      ],
      "name": "getOptionsForTopic",
      "outputs": [
        {
          "internalType": "string[]",
          "name": "",
          "type": "string[]"
        }
      ],
      "stateMutability": "view",
      "type": "function"
    },
    {
      "inputs": [
        {
          "internalType": "string",
          "name": "topicId",
          "type": "string"
        }
      ],
      "name": "getPendingVoters",
      "outputs": [
        {
          "internalType": "address[]",
          "name": "",
          "type": "address[]"
        }
      ],
      "stateMutability": "view",
      "type": "function"
    },
    {
      "inputs": [
        {
          "internalType": "string",
          "name": "topicId",
          "type": "string"
        },
        {
          "internalType": "string",
          "name": "option",
          "type": "string"
        }
      ],
      "name": "getVoteCount",
      "outputs": [
        {
          "internalType": "uint256",
          "name": "",
          "type": "uint256"
        }
      ],
      "stateMutability": "view",
      "type": "function"
    },
    {
      "inputs": [
        {
          "internalType": "string",
          "name": "topicId",
          "type": "string"
        }
      ],
      "name": "registerVoter",
      "outputs": [],
      "stateMutability": "nonpayable",
      "type": "function"
    },
    {
      "inputs": [
        {
          "internalType": "string",
          "name": "topicId",
          "type": "string"
        },
        {
          "internalType": "address",
          "name": "voter",
          "type": "address"
        }
      ],
      "name": "rejectVoter",
      "outputs": [],
      "stateMutability": "nonpayable",
      "type": "function"
    },
    {
      "inputs": [
        {
          "internalType": "string",
          "name": "",
          "type": "string"
        }
      ],
      "name": "topics",
      "outputs": [
        {
          "internalType": "address",
          "name": "creator",
          "type": "address"
        },
        {
          "internalType": "uint256",
          "name": "expiryTime",
          "type": "uint256"
        }
      ],
      "stateMutability": "view",
      "type": "function"
    },
    {
      "inputs": [
        {
          "internalType": "string",
          "name": "topicId",
          "type": "string"
        },
        {
          "internalType": "string",
          "name": "option",
          "type": "string"
        }
      ],
      "name": "vote",
      "outputs": [],
      "stateMutability": "nonpayable",
      "type": "function"
    }
  ],
  "bytecode": "0x608060405234801561000f575f80fd5b506125d88061001d5f395ff3fe608060405234801561000f575f80fd5b506004361061009c575f3560e01c80637f3f4cb5116100645780637f3f4cb514610154578063c5c8e17314610170578063de2e829f1461018c578063e8d5940d146101bc578063f75c6c72146101d85761009c565b80631694fa7d146100a0578063223e26e0146100d05780634b67e07f146101005780634e76c2001461011c5780636428a48614610138575b5f80fd5b6100ba60048036038101906100b59190611745565b610209565b6040516100c791906117d3565b60405180910390f35b6100ea60048036038101906100e591906117ec565b61024f565b6040516100f79190611968565b60405180910390f35b61011a60048036038101906101159190611745565b6103aa565b005b610136600480360381019061013191906119e2565b610690565b005b610152600480360381019061014d91906117ec565b610a79565b005b61016e600480360381019061016991906119e2565b610d68565b005b61018a60048036038101906101859190611a66565b610f48565b005b6101a660048036038101906101a191906117ec565b611082565b6040516101b39190611b77565b60405180910390f35b6101d660048036038101906101d19190611745565b61123d565b005b6101f260048036038101906101ed91906117ec565b6115a2565b604051610200929190611ba6565b60405180910390f35b5f80836040516102199190611c07565b9081526020016040518091039020600501826040516102389190611c07565b908152602001604051809103902054905092915050565b60605f80836040516102619190611c07565b908152602001604051809103902060010154116102b3576040517f08c379a00000000000000000000000000000000000000000000000000000000081526004016102aa90611c77565b60405180910390fd5b5f80836040516102c39190611c07565b9081526020016040518091039020905080600701805480602002602001604051908101604052809291908181526020015f905b8282101561039e578382905f5260205f2001805461031390611cc2565b80601f016020809104026020016040519081016040528092919081815260200182805461033f90611cc2565b801561038a5780601f106103615761010080835404028352916020019161038a565b820191905f5260205f20905b81548152906001019060200180831161036d57829003601f168201915b5050505050815260200190600101906102f6565b50505050915050919050565b815f816040516103ba9190611c07565b90815260200160405180910390205f015f9054906101000a900473ffffffffffffffffffffffffffffffffffffffff1673ffffffffffffffffffffffffffffffffffffffff163373ffffffffffffffffffffffffffffffffffffffff1614610457576040517f08c379a000000000000000000000000000000000000000000000000000000000815260040161044e90611d62565b60405180910390fd5b5f80846040516104679190611c07565b908152602001604051809103902060010154116104b9576040517f08c379a00000000000000000000000000000000000000000000000000000000081526004016104b090611c77565b60405180910390fd5b5f836040516104c89190611c07565b908152602001604051809103902060010154421061051b576040517f08c379a000000000000000000000000000000000000000000000000000000000815260040161051290611dca565b60405180910390fd5b5f82511161055e576040517f08c379a000000000000000000000000000000000000000000000000000000000815260040161055590611e32565b60405180910390fd5b5f8360405161056d9190611c07565b90815260200160405180910390206006018260405161058c9190611c07565b90815260200160405180910390205f9054906101000a900460ff16156105e7576040517f08c379a00000000000000000000000000000000000000000000000000000000081526004016105de90611e9a565b60405180910390fd5b60015f846040516105f89190611c07565b9081526020016040518091039020600601836040516106179190611c07565b90815260200160405180910390205f6101000a81548160ff0219169083151502179055505f8360405161064a9190611c07565b908152602001604051809103902060070182908060018154018082558091505060019003905f5260205f20015f90919091909150908161068a9190612055565b50505050565b815f816040516106a09190611c07565b90815260200160405180910390205f015f9054906101000a900473ffffffffffffffffffffffffffffffffffffffff1673ffffffffffffffffffffffffffffffffffffffff163373ffffffffffffffffffffffffffffffffffffffff161461073d576040517f08c379a000000000000000000000000000000000000000000000000000000000815260040161073490611d62565b60405180910390fd5b5f8360405161074c9190611c07565b90815260200160405180910390206003015f8373ffffffffffffffffffffffffffffffffffffffff1673ffffffffffffffffffffffffffffffffffffffff1681526020019081526020015f205f9054906101000a900460ff166107e4576040517f08c379a00000000000000000000000000000000000000000000000000000000081526004016107db9061216e565b60405180910390fd5b5f80846040516107f49190611c07565b908152602001604051809103902090506001816002015f8573ffffffffffffffffffffffffffffffffffffffff1673ffffffffffffffffffffffffffffffffffffffff1681526020019081526020015f205f6101000a81548160ff0219169083151502179055505f8160080190505f826004015f8673ffffffffffffffffffffffffffffffffffffffff1673ffffffffffffffffffffffffffffffffffffffff1681526020019081526020015f205490505f600183805490506108b791906121b9565b905080821461099d575f8382815481106108d4576108d36121ec565b5b905f5260205f20015f9054906101000a900473ffffffffffffffffffffffffffffffffffffffff16905080848481548110610912576109116121ec565b5b905f5260205f20015f6101000a81548173ffffffffffffffffffffffffffffffffffffffff021916908373ffffffffffffffffffffffffffffffffffffffff16021790555082856004015f8373ffffffffffffffffffffffffffffffffffffffff1673ffffffffffffffffffffffffffffffffffffffff1681526020019081526020015f2081905550505b828054806109ae576109ad612219565b5b600190038181905f5260205f20015f6101000a81549073ffffffffffffffffffffffffffffffffffffffff02191690559055836003015f8773ffffffffffffffffffffffffffffffffffffffff1673ffffffffffffffffffffffffffffffffffffffff1681526020019081526020015f205f6101000a81549060ff0219169055836004015f8773ffffffffffffffffffffffffffffffffffffffff1673ffffffffffffffffffffffffffffffffffffffff1681526020019081526020015f205f905550505050505050565b5f8082604051610a899190611c07565b90815260200160405180910390206001015411610adb576040517f08c379a0000000000000000000000000000000000000000000000000000000008152600401610ad290611c77565b60405180910390fd5b5f81604051610aea9190611c07565b9081526020016040518091039020600101544210610b3d576040517f08c379a0000000000000000000000000000000000000000000000000000000008152600401610b3490611dca565b60405180910390fd5b5f81604051610b4c9190611c07565b90815260200160405180910390206002015f3373ffffffffffffffffffffffffffffffffffffffff1673ffffffffffffffffffffffffffffffffffffffff1681526020019081526020015f205f9054906101000a900460ff1615610be5576040517f08c379a0000000000000000000000000000000000000000000000000000000008152600401610bdc90612290565b60405180910390fd5b60015f82604051610bf69190611c07565b90815260200160405180910390206003015f3373ffffffffffffffffffffffffffffffffffffffff1673ffffffffffffffffffffffffffffffffffffffff1681526020019081526020015f205f6101000a81548160ff0219169083151502179055505f81604051610c679190611c07565b908152602001604051809103902060080133908060018154018082558091505060019003905f5260205f20015f9091909190916101000a81548173ffffffffffffffffffffffffffffffffffffffff021916908373ffffffffffffffffffffffffffffffffffffffff16021790555060015f82604051610ce79190611c07565b908152602001604051809103902060080180549050610d0691906121b9565b5f82604051610d159190611c07565b90815260200160405180910390206004015f3373ffffffffffffffffffffffffffffffffffffffff1673ffffffffffffffffffffffffffffffffffffffff1681526020019081526020015f208190555050565b815f81604051610d789190611c07565b90815260200160405180910390205f015f9054906101000a900473ffffffffffffffffffffffffffffffffffffffff1673ffffffffffffffffffffffffffffffffffffffff163373ffffffffffffffffffffffffffffffffffffffff1614610e15576040517f08c379a0000000000000000000000000000000000000000000000000000000008152600401610e0c90611d62565b60405180910390fd5b5f8084604051610e259190611c07565b90815260200160405180910390206001015411610e77576040517f08c379a0000000000000000000000000000000000000000000000000000000008152600401610e6e90611c77565b60405180910390fd5b5f83604051610e869190611c07565b9081526020016040518091039020600101544210610ed9576040517f08c379a0000000000000000000000000000000000000000000000000000000008152600401610ed090611dca565b60405180910390fd5b5f83604051610ee89190611c07565b90815260200160405180910390206002015f8373ffffffffffffffffffffffffffffffffffffffff1673ffffffffffffffffffffffffffffffffffffffff1681526020019081526020015f205f6101000a81549060ff0219169055505050565b5f8083604051610f589190611c07565b90815260200160405180910390206001015414610faa576040517f08c379a0000000000000000000000000000000000000000000000000000000008152600401610fa19061231e565b60405180910390fd5b5f8111610fec576040517f08c379a0000000000000000000000000000000000000000000000000000000008152600401610fe3906123ac565b60405180910390fd5b5f8142610ff991906123ca565b9050335f8460405161100b9190611c07565b90815260200160405180910390205f015f6101000a81548173ffffffffffffffffffffffffffffffffffffffff021916908373ffffffffffffffffffffffffffffffffffffffff160217905550805f846040516110689190611c07565b908152602001604051809103902060010181905550505050565b6060815f816040516110949190611c07565b90815260200160405180910390205f015f9054906101000a900473ffffffffffffffffffffffffffffffffffffffff1673ffffffffffffffffffffffffffffffffffffffff163373ffffffffffffffffffffffffffffffffffffffff1614611131576040517f08c379a000000000000000000000000000000000000000000000000000000000815260040161112890611d62565b60405180910390fd5b5f80846040516111419190611c07565b90815260200160405180910390206001015411611193576040517f08c379a000000000000000000000000000000000000000000000000000000000815260040161118a90611c77565b60405180910390fd5b5f836040516111a29190611c07565b908152602001604051809103902060080180548060200260200160405190810160405280929190818152602001828054801561123057602002820191905f5260205f20905b815f9054906101000a900473ffffffffffffffffffffffffffffffffffffffff1673ffffffffffffffffffffffffffffffffffffffff16815260200190600101908083116111e7575b5050505050915050919050565b815f8160405161124d9190611c07565b90815260200160405180910390206002015f3373ffffffffffffffffffffffffffffffffffffffff1673ffffffffffffffffffffffffffffffffffffffff1681526020019081526020015f205f9054906101000a900460ff166112e5576040517f08c379a00000000000000000000000000000000000000000000000000000000081526004016112dc9061246d565b60405180910390fd5b5f80846040516112f59190611c07565b90815260200160405180910390206001015411611347576040517f08c379a000000000000000000000000000000000000000000000000000000000815260040161133e90611c77565b60405180910390fd5b5f836040516113569190611c07565b90815260200160405180910390206001015442106113a9576040517f08c379a00000000000000000000000000000000000000000000000000000000081526004016113a090611dca565b60405180910390fd5b5f836040516113b89190611c07565b9081526020016040518091039020600601826040516113d79190611c07565b90815260200160405180910390205f9054906101000a900460ff16611431576040517f08c379a0000000000000000000000000000000000000000000000000000000008152600401611428906124d5565b60405180910390fd5b5f836040516114409190611c07565b90815260200160405180910390206009015f3373ffffffffffffffffffffffffffffffffffffffff1673ffffffffffffffffffffffffffffffffffffffff1681526020019081526020015f205f9054906101000a900460ff16156114d9576040517f08c379a00000000000000000000000000000000000000000000000000000000081526004016114d09061253d565b60405180910390fd5b60015f846040516114ea9190611c07565b90815260200160405180910390206009015f3373ffffffffffffffffffffffffffffffffffffffff1673ffffffffffffffffffffffffffffffffffffffff1681526020019081526020015f205f6101000a81548160ff0219169083151502179055505f8360405161155b9190611c07565b90815260200160405180910390206005018260405161157a9190611c07565b90815260200160405180910390205f8154809291906115989061255b565b9190505550505050565b5f818051602081018201805184825260208301602085012081835280955050505050505f91509050805f015f9054906101000a900473ffffffffffffffffffffffffffffffffffffffff16908060010154905082565b5f604051905090565b5f80fd5b5f80fd5b5f80fd5b5f80fd5b5f601f19601f8301169050919050565b7f4e487b71000000000000000000000000000000000000000000000000000000005f52604160045260245ffd5b61165782611611565b810181811067ffffffffffffffff8211171561167657611675611621565b5b80604052505050565b5f6116886115f8565b9050611694828261164e565b919050565b5f67ffffffffffffffff8211156116b3576116b2611621565b5b6116bc82611611565b9050602081019050919050565b828183375f83830152505050565b5f6116e96116e484611699565b61167f565b9050828152602081018484840111156117055761170461160d565b5b6117108482856116c9565b509392505050565b5f82601f83011261172c5761172b611609565b5b813561173c8482602086016116d7565b91505092915050565b5f806040838503121561175b5761175a611601565b5b5f83013567ffffffffffffffff81111561177857611777611605565b5b61178485828601611718565b925050602083013567ffffffffffffffff8111156117a5576117a4611605565b5b6117b185828601611718565b9150509250929050565b5f819050919050565b6117cd816117bb565b82525050565b5f6020820190506117e65f8301846117c4565b92915050565b5f6020828403121561180157611800611601565b5b5f82013567ffffffffffffffff81111561181e5761181d611605565b5b61182a84828501611718565b91505092915050565b5f81519050919050565b5f82825260208201905092915050565b5f819050602082019050919050565b5f81519050919050565b5f82825260208201905092915050565b5f5b83811015611893578082015181840152602081019050611878565b5f8484015250505050565b5f6118a88261185c565b6118b28185611866565b93506118c2818560208601611876565b6118cb81611611565b840191505092915050565b5f6118e1838361189e565b905092915050565b5f602082019050919050565b5f6118ff82611833565b611909818561183d565b93508360208202850161191b8561184d565b805f5b85811015611956578484038952815161193785826118d6565b9450611942836118e9565b925060208a0199505060018101905061191e565b50829750879550505050505092915050565b5f6020820190508181035f83015261198081846118f5565b905092915050565b5f73ffffffffffffffffffffffffffffffffffffffff82169050919050565b5f6119b182611988565b9050919050565b6119c1816119a7565b81146119cb575f80fd5b50565b5f813590506119dc816119b8565b92915050565b5f80604083850312156119f8576119f7611601565b5b5f83013567ffffffffffffffff811115611a1557611a14611605565b5b611a2185828601611718565b9250506020611a32858286016119ce565b9150509250929050565b611a45816117bb565b8114611a4f575f80fd5b50565b5f81359050611a6081611a3c565b92915050565b5f8060408385031215611a7c57611a7b611601565b5b5f83013567ffffffffffffffff811115611a9957611a98611605565b5b611aa585828601611718565b9250506020611ab685828601611a52565b9150509250929050565b5f81519050919050565b5f82825260208201905092915050565b5f819050602082019050919050565b611af2816119a7565b82525050565b5f611b038383611ae9565b60208301905092915050565b5f602082019050919050565b5f611b2582611ac0565b611b2f8185611aca565b9350611b3a83611ada565b805f5b83811015611b6a578151611b518882611af8565b9750611b5c83611b0f565b925050600181019050611b3d565b5085935050505092915050565b5f6020820190508181035f830152611b8f8184611b1b565b905092915050565b611ba0816119a7565b82525050565b5f604082019050611bb95f830185611b97565b611bc660208301846117c4565b9392505050565b5f81905092915050565b5f611be18261185c565b611beb8185611bcd565b9350611bfb818560208601611876565b80840191505092915050565b5f611c128284611bd7565b915081905092915050565b5f82825260208201905092915050565b7f546f70696320646f6573206e6f742065786973740000000000000000000000005f82015250565b5f611c61601483611c1d565b9150611c6c82611c2d565b602082019050919050565b5f6020820190508181035f830152611c8e81611c55565b9050919050565b7f4e487b71000000000000000000000000000000000000000000000000000000005f52602260045260245ffd5b5f6002820490506001821680611cd957607f821691505b602082108103611cec57611ceb611c95565b5b50919050565b7f4f6e6c792074686520746f7069632063726561746f722063616e20706572666f5f8201527f726d207468697320616374696f6e000000000000000000000000000000000000602082015250565b5f611d4c602e83611c1d565b9150611d5782611cf2565b604082019050919050565b5f6020820190508181035f830152611d7981611d40565b9050919050565b7f566f74696e6720706572696f642068617320656e6465640000000000000000005f82015250565b5f611db4601783611c1d565b9150611dbf82611d80565b602082019050919050565b5f6020820190508181035f830152611de181611da8565b9050919050565b7f4f7074696f6e2063616e6e6f7420626520656d707479000000000000000000005f82015250565b5f611e1c601683611c1d565b9150611e2782611de8565b602082019050919050565b5f6020820190508181035f830152611e4981611e10565b9050919050565b7f4f7074696f6e20616c72656164792065786973747300000000000000000000005f82015250565b5f611e84601583611c1d565b9150611e8f82611e50565b602082019050919050565b5f6020820190508181035f830152611eb181611e78565b9050919050565b5f819050815f5260205f209050919050565b5f6020601f8301049050919050565b5f82821b905092915050565b5f60088302611f147fffffffffffffffffffffffffffffffffffffffffffffffffffffffffffffffff82611ed9565b611f1e8683611ed9565b95508019841693508086168417925050509392505050565b5f819050919050565b5f611f59611f54611f4f846117bb565b611f36565b6117bb565b9050919050565b5f819050919050565b611f7283611f3f565b611f86611f7e82611f60565b848454611ee5565b825550505050565b5f90565b611f9a611f8e565b611fa5818484611f69565b505050565b5b81811015611fc857611fbd5f82611f92565b600181019050611fab565b5050565b601f82111561200d57611fde81611eb8565b611fe784611eca565b81016020851015611ff6578190505b61200a61200285611eca565b830182611faa565b50505b505050565b5f82821c905092915050565b5f61202d5f1984600802612012565b1980831691505092915050565b5f612045838361201e565b9150826002028217905092915050565b61205e8261185c565b67ffffffffffffffff81111561207757612076611621565b5b6120818254611cc2565b61208c828285611fcc565b5f60209050601f8311600181146120bd575f84156120ab578287015190505b6120b5858261203a565b86555061211c565b601f1984166120cb86611eb8565b5f5b828110156120f2578489015182556001820191506020850194506020810190506120cd565b8683101561210f578489015161210b601f89168261201e565b8355505b6001600288020188555050505b505050505050565b7f566f746572206973206e6f742070656e64696e670000000000000000000000005f82015250565b5f612158601483611c1d565b915061216382612124565b602082019050919050565b5f6020820190508181035f8301526121858161214c565b9050919050565b7f4e487b71000000000000000000000000000000000000000000000000000000005f52601160045260245ffd5b5f6121c3826117bb565b91506121ce836117bb565b92508282039050818111156121e6576121e561218c565b5b92915050565b7f4e487b71000000000000000000000000000000000000000000000000000000005f52603260045260245ffd5b7f4e487b71000000000000000000000000000000000000000000000000000000005f52603160045260245ffd5b7f566f74657220697320616c7265616479207265676973746572656400000000005f82015250565b5f61227a601b83611c1d565b915061228582612246565b602082019050919050565b5f6020820190508181035f8301526122a78161226e565b9050919050565b7f546f7069632077697468207468652073616d6520494420616c726561647920655f8201527f7869737473000000000000000000000000000000000000000000000000000000602082015250565b5f612308602583611c1d565b9150612313826122ae565b604082019050919050565b5f6020820190508181035f830152612335816122fc565b9050919050565b7f4475726174696f6e206d7573742062652067726561746572207468616e207a655f8201527f726f000000000000000000000000000000000000000000000000000000000000602082015250565b5f612396602283611c1d565b91506123a18261233c565b604082019050919050565b5f6020820190508181035f8301526123c38161238a565b9050919050565b5f6123d4826117bb565b91506123df836117bb565b92508282019050808211156123f7576123f661218c565b5b92915050565b7f4f6e6c79207265676973746572656420766f746572732063616e20706572666f5f8201527f726d207468697320616374696f6e000000000000000000000000000000000000602082015250565b5f612457602e83611c1d565b9150612462826123fd565b604082019050919050565b5f6020820190508181035f8301526124848161244b565b9050919050565b7f496e76616c696420766f74696e67206f7074696f6e00000000000000000000005f82015250565b5f6124bf601583611c1d565b91506124ca8261248b565b602082019050919050565b5f6020820190508181035f8301526124ec816124b3565b9050919050565b7f416c726561647920766f74656420666f72207468697320746f706963000000005f82015250565b5f612527601c83611c1d565b9150612532826124f3565b602082019050919050565b5f6020820190508181035f8301526125548161251b565b9050919050565b5f612565826117bb565b91507fffffffffffffffffffffffffffffffffffffffffffffffffffffffffffffffff82036125975761259661218c565b5b60018201905091905056fea26469706673582212207ceaa5af9b5d961b8368821574e1b63f75b142e5b59ca388ba435b239248b55d64736f6c63430008140033",
  "linkReferences": {},
  "deployedLinkReferences": {}
}